:020000040800F2
:10000000B046012065030008836F000813630008F1
:10001000816F0008D12400088D78000800000000DE
:10002000000000000000000000000000A502000821
:10003000A52700080000000001030008FB75000868
:100040007F0300087F0300087F0300087F03000888
:100050007F0300087F0300087F0300087F03000878
:100060007F0300087F0300087F0300087F03000868
:100070007F0300087F0300087F0300087F03000858
:10008000392600087F0300087F0300087F0300086B
:100090007F0300087F0300087F0300087F03000838
:1000A0007F030008BD7600087F0300087F03000877
:1000B0007F0300087F0300087F0300087F03000818
:1000C0007F0300087F0300087F0300087F03000808
:1000D0007F0300087F0300087F0300087F030008F8
:1000E0007F0300087F0300087F0300087F030008E8
:1000F0007F0300087F0300087F0300087F030008D8
:100100007F0300087F0300087F0300087F030008C7
:100110007F0300087F0300087F0300087F030008B7
:10012000512600087F0300087F0300087F030008B2
:100130007F0300087F0300087F0300087F03000897
:100140007F0300087F0300087F0300087F03000887
:100150007F0300087F0300087F0300087F03000877
:100160007F0300087F0300087F0300087F03000867
:100170007F0300087F0300087F03000800000000E1
:100180007F0300087F0300087F0300087F03000847
:100190007F0300087F0300087F0300087F03000837
:1001A000ED6800087F030008452600087F0300086B
:1001B0005127000800F002F800F065F80AA090E866
:1001C000000C82448344AAF10107DA4501D100F012
:1001D0005AF8AFF2090EBAE80F0013F0010F18BF7A
:1001E000FB1A43F00103184750370400703704002E
:1001F0000A444FF0000C10F8013B13F0070408BF4D
:1002000010F8014B1D1108BF10F8015B641E05D0EA
:1002100010F8016B641E01F8016BF9D113F0080F9F
:100220001EBF10F8014BAD1C0C1B09D16D1E58BF31
:1002300001F801CBFAD505E014F8016B01F8016B68
:100240006D1EF9D59142D6D37047000000230024DB
:1002500000250026103A28BF78C1FBD8520728BFD6
:1002600030C148BF0B6070471FB523F014F89DE8FC
:10027000030000F0F1FA00F0FBF91FBD10B50020FB
:1002800000F073FA10BD00F053FB1146FFF7ECFFCE
:100290001FF090FF00F08BFB03B4FFF7EFFF03BCF0
:1002A00000F0F8F92C4B19680868B0E8F04F80F3BB
:1002B0000988BFF36F8F4FF0000080F311887047FB
:1002C0000000000008480068006880F308884FF0CC
:1002D000000080F3148862B661B6BFF34F8FBFF39E
:1002E0006F8F00DF00BF00BF08ED00E0DFF80C00FB
:1002F000016841F470010160704700BF88ED00E0C3
:10030000EFF30980BFF36F8F134B1A681EF0100FC5
:1003100008BF20ED108A20E9F04F106009B44FF0BB
:10032000500080F31188BFF34F8FBFF36F8F21F020
:10033000ABF84FF0000080F3118809BC1968086819
:10034000B0E8F04F1EF0100F08BFB0EC108A80F339
:100350000988BFF36F8F7047E8000020EFF3058036
:10036000704700000948804709480047FEE7FEE75C
:10037000FEE7FEE7FEE7FEE7FEE7FEE7FEE7FEE755
:1003800004480549054A064B70470000A17600085D
:10039000B5010008B0260120B0460120B03601208A
:1003A000B036012053EA020C00F069802DE9F04BD1
:1003B0004FF00006002B1FBFB3FA83F503FA05F4D4
:1003C00024FA05F65E4012BF1643B2FA82F502FA2D
:1003D00005F4C5F120051EBF22FA05FC44EA0C0411
:1003E000203556EA044C4FEA144418BF641C4FF001
:1003F00000084FF00009904271EB030C39D300293B
:1004000019BFB1FA81F701FA07F6B0FA80F700FADE
:1004100007F6C7F120071EBF20FA07FC46EA0C06C4
:100420002037B6FBF4FCA7EB0507103F07F01F0BC6
:10043000CBF120060CFA0BFB2CFA06F644BFB346B0
:100440000026202FA4BF5E464FF0000B5BEA060C8F
:1004500008BF4FF0010B19EB0B09ABFB027C48EB1B
:100460000608C01B06FB02CC0BFB03CC71EB0C0196
:10047000C1E70B46024641464846BDE8F08B13B53E
:100480004FF000004FF00001AFF30080BDE81C40CA
:10049000704710B54C1084EA530404D54042C1F1B2
:1004A000000138BF491E1B4204D55242C3F100036C
:1004B00038BF5B1EFFF776FF14F0804F04D0404238
:1004C000C1F1000138BF491E14F0004F04D0524260
:1004D000C3F1000338BF5B1E10BD10B5002000F053
:1004E00065F9FFF7CBFEBDE81040012000F0D2B85F
:1004F0002DE9F041074615460E46102000F0D4F8CD
:1005000004000AD06760C4E9026500F0C9F8016818
:10051000216004600020BDE8F0810120FBE7032A90
:1005200040F2308010F0030C00F0158011F8013B10
:10053000BCF1020F624498BF11F801CB00F8013BF7
:1005400038BF11F8013BA2F1040298BF00F801CBBB
:1005500038BF00F8013B11F0030300F02580083A92
:10056000C0F0088051F8043B083A51F804CBA0E8E9
:100570000810F5E7121D5CBF51F8043B40F8043B3E
:10058000AFF30080D20724BF11F8013B11F801CB73
:1005900048BF11F8012B24BF00F8013B00F801CB44
:1005A00048BF00F8012B704710B5203AC0F00B800F
:1005B000B1E81850203AA0E81850B1E81850A0E867
:1005C0001850BFF4F5AF5FEA027C24BFB1E81850C1
:1005D000A0E8185044BF18C918C0BDE810405FEA31
:1005E000827C24BF51F8043B40F8043B08BF7047AD
:1005F000D20728BF31F8023B48BF11F8012B28BFB2
:1006000020F8023B48BF00F8012B704702F0FF03BF
:1006100043EA032242EA024200F0D8B84FF0000257
:1006200000B5134694469646203922BFA0E80C50E8
:10063000A0E80C50B1F12001BFF4F7AF090728BFC3
:10064000A0E80C5048BF0CC05DF804EB890028BF3F
:1006500040F8042B08BF704748BF20F8022B11F068
:10066000804F18BF00F8012B7047704770477047E4
:1006700070B5064C7C44064D7D4403E02068204460
:100680008047241DAC42F9D170BD0000E032040067
:10069000F032040001491820ABBEFEE7260002003C
:1006A0000048704798C5002070B5064600F0B4F8C1
:1006B000056806F10B0020F00704B4429CBF00203F
:1006C00070BD2B466A68BAB11068A04210D304F11D
:1006D000080188423CBF5068586007D35168101920
:1006E00041601168091B016058601460101D70BDE5
:1006F00013465268002AE7D12146284600F098F8B0
:100700000028DED170BD70B50446051F00F084F8E6
:100710000068002C14BF446870BD002C18BFAC42A8
:100720003CBF20466468F8D301680A18AA4218BF83
:10073000456003D12A6805461144016028684119C3
:10074000A1421CBF6C6070BD61686960216808448B
:10075000286070BD10B500F063F8006810BD10B5DA
:10076000044600F05DF8046010BD2DE9F041064636
:10077000FFF796FF8046454613E016B1E068B042A9
:100780000ED120682860D4E90101D8F800708847AC
:100790002046FFF7B8FFD8F80000B842EBD100E0E0
:1007A00025462C68002CE8D1BDE8F08110B500F09A
:1007B0008FF8BDE8104000F085B810B500F0A0F843
:1007C000BDE8104000F07EB84FF000020429C0F0F0
:1007D000128010F0030C3FF423AFCCF1040CBCF1F9
:1007E000020F18BF00F8012BA8BF20F8022BA1EBC5
:1007F0000C01FFF715BF5FEAC17C24BF00F8012B95
:1008000000F8012B48BF00F8012B704700487047E3
:1008100060C50020704700000048704768C5002090
:100820000048704760C500207047704770477047A8
:1008300038B504460A4600206946AFF30080002818
:1008400008BF38BD02460099204600F096F8012006
:1008500038BD012000F0CDB8F8B5AFF300800546F3
:1008600000200C46102000BF0646A819A0420DD952
:10087000324669460020AFF30080070008BF00F051
:10088000B8F80098A04218BF0546C419FFF7C4FF86
:1008900005600746F01D20F007004619284600F0C5
:1008A0000AF8B44208BFF8BDA21B31463868BDE85B
:1008B000F84000F062B800210160C0E90110704703
:1008C00010207047002801D0FFF7E4BE70470000F9
:1008D00010B5002102A000F073F8012010BD000047
:1008E000534947414252543A2041626E6F726D61E2
:1008F0006C207465726D696E6174696F6E000000C2
:1009000010B5002102A000F05BF8012010BD00002E
:100910005349475056464E3A2050757265207669C5
:10092000727475616C20666E2063616C6C65640026
:100930007546FFF76BFFAE4605006946534620F04B
:100940000700854618B020B5FFF71AFDBDE8204026
:100950004FF000064FF000074FF000084FF0000B7B
:1009600021F00701AC46ACE8C009ACE8C009ACE82E
:10097000C009ACE8C0098D467047034640688C4604
:10098000002818BF88423CBF03464068F8D3186867
:100990001844884207D00CF1030020F00700001D26
:1009A000411A521A0146081D0A60FFF7ACBE10B585
:1009B0000446AFF300802046BDE81040FFF76CBC52
:1009C00070B505460C460A2000E06D1C00F018F8D2
:1009D00035B128780028F8D102E0641C00F010F846
:1009E00014B120780028F8D1BDE870400A2000F04A
:1009F00007B810B500F00CF8BDE81040FFF762BF73
:100A000008B569468DF800000320ABBE08BD0000A4
:100A100010B5012805D0002103A0FFF7D1FF012068
:100A200010BD09A1F8E7000053494752544D454D08
:100A30003A204F7574206F662068656170206D657F
:100A40006D6F7279000000003A2048656170206D7A
:100A5000656D6F727920636F727275707465640072
:100A6000F0B5F1B1002300BF02EB430C32F813E004
:100A7000BCF802C02EF0030E2CF0030C50F80E5000
:100A800050F80C6000EB0E0400EB0C0740F80E6011
:100A900040F80C507E68656802338B4266607D606A
:100AA000E2D3F0BD2DE9F04104889846164607468A
:100AB000012A0D460CD1E4B3281D214690ED000A11
:100AC0000139B1EE400A80ED000A00F10800F5D1CD
:100AD000FF2C0CDDB4F5806F10DBB4F5805F22D005
:100AE000B4F5006F11D0B4F5806F17D021E03F2C22
:100AF00010DC102C12D0202C07D01AE0B4F5807F27
:100B000003D0B4F5007F0ED013E03846294600F03C
:100B10005FF90EE0402C06D0802C0AD138462946D9
:100B200000F08AF805E07A6828462146012300F0A3
:100B3000F7FBB8F1000F04D0B989BA682846FFF76F
:100B40008FFF012E1CD100EE104A002CB8EE400A97
:100B500008BFBDE8F081B7EE001A81EE000A00BFC1
:100B600095ED001A95ED012A20EE011A22EE402A99
:100B700085ED001A85ED012A013C05F10805EFD14C
:100B8000BDE8F08100224260FF294FF0FF020180A2
:100B90000EDDB1F5806F16DB29D0B1F5805F2BD06B
:100BA000B1F5006F46D14BF24053C0F6020336E078
:100BB0003F2913DC102924D020293BD14BF260536C
:100BC000C0F602032BE0B1F5807F1FD0B1F5007FA6
:100BD00030D14BF28053C0F6020320E040291AD0F6
:100BE000802927D14BF22053C0F6020317E04BF2C5
:100BF0001053C0F6020312E04BF27053C0F602032A
:100C00000DE04BF23053C0F6020308E04BF25053B4
:100C1000C0F6020303E04BF29053C0F60203191D25
:100C200003F108020C331B88126809688381C0E94C
:100C30000112002250B270472DE9F0472DED028BD2
:100C400003888046084601EB830AD8F80420002177
:100C5000B1EBD30F4FEA530900F0AB80D9080AEB90
:100C6000890C00EB890E0027C4190AEB070594EDE7
:100C7000000A95ED003A94ED011A95ED014A0EEB4C
:100C800007030CEB070694ED022A95ED025A70EE6D
:100C9000035A93ED006AD6ED001AD6ED012AD6ED7F
:100CA000023AD6ED034AC4ED005A71EE045A93EDB0
:100CB000017AC4ED015A72EE055AD3ED020AC4ED71
:100CC000025AD4ED035AD5ED036A31EE441A35EEDB
:100CD000A68A36EE214AD3ED037A84ED038A83EDAA
:100CE000004A37EE224A83ED014A30EEA34A83EDF3
:100CF000024A37EEA44A83ED034AD31931EEC64ABD
:100D000033EEE06AD3ED000AD3ED011A30EE430A68
:100D100032EE452A32EEC75A60EE202A61EE213AC1
:100D200021EE201A20EE210A31EE400A85ED010A5B
:100D300024EE210A25EE211A25EE205A72EEA32A6E
:100D400024EE204A30EE450AC5ED002A86ED000A61
:100D500034EE010A86ED010A93ED020A93ED031ABF
:100D600035EEE63A22EE004A23EE015A23EE003A2F
:100D700022EE012A34EEE77A33EE422A85ED032A89
:100D800026EE012A27EE011A27EE003A26EE000A87
:100D900034EE054A32EE432A30EE010A013907F1FA
:100DA000100785ED024A86ED022A86ED030A7FF4DC
:100DB0005BAF4946022300F0B3FAD8F8042050464E
:100DC00049460223BDEC028BBDE8F04700F0A8BA0B
:100DD0002DE9F04F81B02DED088B8EB002880346CF
:100DE000500801EB800505EB800691ED000A91EDBE
:100DF000011A96ED002A96ED013A04935B6806EB22
:100E0000800730EE024A30EE420A31EE032A31EE1C
:100E1000431A95ED013A95ED005A0593930897ED25
:100E2000017AD7ED000A029374EE452A72EE433A36
:100E300034EE054A32EE032A6FF0010334EE204A05
:100E400032EE072A03EB920230EE036A71EE451A86
:100E500030EE430A31EE051A81ED004A0A9181ED28
:100E6000012A510836EE476A71EEA01A72EEE02AA6
:100E700073EEC73A30EE070A31EE601A009501961C
:100E800003970D91C10085ED006AC5ED011AC6ED0D
:100E9000002AC6ED013A87ED000A87ED011A0C9190
:100EA00000EB40016FF007036FF003074FEA800E7D
:100EB00007EBC00B07EB800A03EB001903EB810281
:100EC0008C000020002500210B9100BF0A9E059B8D
:100ED00007900695089406EB04080C9C311806EB65
:100EE000040C06EB0E0491ED020A9CED022AD4EDEF
:100EF000020A30EE026AD8ED022A36EE204A34EEBB
:100F0000224A91ED031A9CED033AD4ED031AD8ED71
:100F1000033A81ED024A94ED034A31EE037A98EDEB
:100F2000035A37EE044ACDF824E034EE054A81ED49
:100F3000034A0B9930EE420A31EE431A30EE212A71
:100F400003EB010E32EE634A31EE602A0D9932EE68
:100F5000225A36EE602A37EE613A30EE610A31EEFF
:100F6000201A1F18581932EE622A33EE633A30EE17
:100F7000230A002931EE621A00F0CC800A998E18FB
:100F800001EB0A0301EB0905594493ED007AD6ED14
:100F9000010AD1ED003A77EE202AD5ED014A72EE32
:100FA000A35A75EEA45A13ED016AD6ED001A51ED5D
:100FB000016AD5ED007AC3ED005A11ED018A76EE93
:100FC000215A95ED009A35EE888A38EE098A03EDAC
:100FD000018A97ED028A97ED039A24EE08AA25EE7E
:100FE00009BA25EE085A24EE094A35EE444A37EE8E
:100FF000605A84ED034A36EE614A35EE666A33EE96
:10100000E47A36EE276A74EE070A66EE091A20EED5
:10101000899A60EE880A26EE086A3AEE0BAA71EE0B
:10102000E00A36EE096A84ED02AAC1ED000A01ED7C
:10103000016A90ED046AD0ED050A62EE061A23EE0D
:10104000208A23EE063A22EE202A33EE422A8CED45
:10105000032A32EEE32A35EEE63A71EE881A33EED1
:10106000673A32EE642A0D98CCED021A62EE461A07
:1010700023EE066A23EE203A22EE202A31EEC33A0E
:1010800032EE462A013886ED013A86ED002A0D90AF
:101090009EED062A9EED073A0C9820EE026A61EE5C
:1010A000030A21EE021A20EE030A083031EE400A4C
:1010B00037EEE61ADDF824E00C9088ED030A37EEEF
:1010C000440A31EE451A0B9821EE034A20EE033A0A
:1010D00020EE020A36EE206A21EE021A34EE400AB1
:1010E000183088ED026A85ED010A31EE030A089C8A
:1010F0000B9085ED000A069D07980EF1080E083446
:1011000010350830A9F10809083AABF1080BAAF12B
:10111000080ADBE697ED026A97ED037A64EE060AA9
:1011200065EE071A25EE065A24EE074A30EEA16A4C
:1011300035EE444A84ED026A84ED034A90ED044A98
:1011400090ED055A22EE046A23EE057A23EE043A66
:1011500022EE052A36EE074A33EE422A8CED024A89
:101160008CED032A9EED062A9EED073A029D20EEA5
:10117000024A21EE035A21EE021A20EE030A0A98CF
:10118000059A34EE052A31EE400A2946042388EDFB
:10119000022A88ED030A00F0C3F8049C00986268F4
:1011A0002946042300F0BCF862680198294604230C
:1011B00000F0B6F862680398294604230EB0BDEC2F
:1011C000088B01B0BDE8F04F00F0AAB82DE9F0435C
:1011D00081B02DED028B0C4600219046B1EB920FB1
:1011E000054674D04FEA980795ED000A95ED011A6F
:1011F00020EE000A21EE011A30EE018AB0EE480A14
:101200001EF0D0FDB4EE400AF1EE10FA49D684ED9E
:10121000000A95ED020A95ED031A20EE000A21EE70
:10122000011A30EE018AB0EE480A1EF0BBFDB4EEA2
:10123000400AF1EE10FA39D684ED010A95ED040A60
:1012400095ED051A20EE000A21EE011A30EE018A12
:10125000B0EE480A1EF0A6FDB4EE400AF1EE10FA18
:1012600029D684ED020A95ED060A95ED071A20EEBF
:10127000000A21EE011A30EE018AB0EE480A05F1AB
:10128000200904F110061EF08DFDB4EE400AF1EEC7
:1012900010FA15D684ED030A013F4D463446A3D11A
:1012A00013E0B0EE480A1EF07DFDB0E7B0EE480A4C
:1012B0001EF078FDC0E7B0EE480A1EF073FDD0E7DF
:1012C000B0EE480A1EF06EFDE4E734464D4618F0D5
:1012D000030620D095ED000A95ED011A20EE000AD4
:1012E00021EE011A30EE018AB0EE480A271D1EF0E9
:1012F00059FDB4EE400AF1EE10FA07D684ED000A6B
:10130000013E05F108053C46E4D104E0B0EE480A90
:101310001EF048FDF2E7BDEC028B01B0BDE8F083A2
:101320002DE9F04F81B02DED108BA0B0DFED04CA98
:1013300000900430CDE902320190CDE91E1101E0A8
:10134000F304353F1F9A4FF0000AD308DF00A7EBE4
:10135000D200C0001D904FEAC20C03EB430503EB23
:101360008302580106931E01019B2C014FEAC20E15
:10137000ED00CDE90C0ECDE90A5600BF0A9D191803
:1013800003EB05091D9D03EB0E0003EB070810EDB1
:10139000014A86469A19181903EB050B13ED011A39
:1013A00011ED012A18ED013A12ED017A50ED010A12
:1013B00059ED011A5BED012A31EE025A33EE046A4F
:1013C00077EE203A71EEA24A75EE235A76EE246A41
:1013D00075EEA67A43ED017A75EEE65AD8ED007AFD
:1013E0009EED008A99ED00BA9BED00CAD3ED006A2C
:1013F00041ED015AD1ED005A92ED009A90ED00AA0C
:1014000037EE88EA7BEE0C8A36EEA5DA39EE0AFA78
:1014100035EE635A36EE646A7EEE684A7DEE0F9AC8
:101420007DEE4F3A35EE24DA35EE645A7EEE28AA88
:1014300002ED01DA33EEC6DA00ED015A36EE235A38
:1014400031EE421A33EE442A37EE603A31EEE24A88
:1014500037EEC86A7BEE4C0A79EEAABA79EEEA9AC0
:1014600072EE441A32EE042A36EE604A36EE206AF4
:10147000C3ED00BAC1ED009A82ED00DA80ED005AAA
:1014800036EEE55A39EE4A7A61EEAC1A22EE2C2A93
:1014900024EE2C4A26EE2C6A71EE210A73EE022A03
:1014A00075EE043A77EE064A31EE611A33EE422ABF
:1014B00035EE443A37EE464A2646744670EEA45A54
:1014C00070EEE40A31EE045A1F9A1E9948ED015A53
:1014D00073EEE25A4BED010A72EEA30A204604EDC8
:1014E000015A33EE425ADDF834E0C8ED005ACBED34
:1014F000000A84ED005A0C9831EE441A34460B9ED3
:10150000924409ED011A32EE031A8A45634489EDCB
:10151000001AFFF433AF1F984028C0F0D48102981E
:10152000009E80B205900698CDE90E4CC0EBC0003D
:10153000C000002401251097049000BF0598039B6C
:10154000044403EBC40191ED000A03EB04128DED9A
:101550001D0A92ED000A04EB440203EBC2008DED7C
:101560001C0A90ED000A03EB44118DED1B0A91ED6E
:10157000000A04EB8401C80003EBC1018DED1A0AD7
:1015800091ED000A4FEAC20A4FEA021B03EB021276
:101590008DED190A92ED000AC4EBC4024FEAC40CA7
:1015A000D10003EBC2028DED180A92ED000A0CF196
:1015B00004024FEA041E1A448DED170A92ED000A48
:1015C0000EF104021A448DED160A92ED000A0AF19A
:1015D00004024FEA44191A448DED150A92ED000AEF
:1015E00009F104021A448DED140A92ED000A043048
:1015F00018448DED130A90ED000A0BF10400184415
:101600008DED120A90ED000A081D18440994D0EDE2
:10161000006A0796B44608952B46DDE90C54DDE9CF
:101620000A76DDF810808DED110A00BF10980E9932
:101630000CEB05090CEB000E0CEB04000CEB060B9D
:101640000CEB010A0CEB07020CEB0801DCED027A53
:1016500099ED028A9EED029A90ED02AA9BED02DAC4
:101660009AED02EA92ED02FAD1ED028A37EE88BADB
:1016700039EE0ACA7DEE0E9A7FEE28AA7BEE29BAD1
:10168000F0EE6C3A7CEE2ACA7BEEACDACCED02DAF4
:101690007BEEECBADCED03CAD9ED03DADEED03EA4A
:1016A000D0ED03FA9BED030A9AED031A92ED032A9B
:1016B00091ED033A3CEEAD4A3EEEAF5A30EE016A90
:1016C00032EE037A74EE060A75EE071ADDED1A4A59
:1016D000DDED135A70EEA12A70EEE10ACCED032A7B
:1016E00064EEAB1A65EEA02A71EEA21A64EEA00AAF
:1016F00065EEAB2A70EEE20AC9ED021AC9ED030AE3
:101700007BEE690A7CEE6A1A34EE464A35EE475A99
:101710009DED1CCADDED154A30EE856A34EE617A26
:101720006CEE062A24EE87BA2CEE077A24EE866A3F
:1017300030EEC55A31EE844ADDED180ADDED111A9E
:1017400037EE466A8BED036A20EE856A21EE847AD5
:1017500020EE844A21EE855A37EE066A34EE454A79
:1017600039EE4A5A3FEE687A7EEEEF1A30EE410AC1
:1017700032EE431A7BEE222A35EE472A35EE073A3F
:1017800031EEC15A31EE811ACBED022A8AED026A9E
:101790008AED034A37EEC84A3DEE4E6A7CEEED0A0A
:1017A00022EE232A23EE233A25EE235A21EE231A92
:1017B000F0EE63CA34EE027A76EE031A70EE852AF2
:1017C00070EE017ADDED1D3ADDED164A37EE278A1F
:1017D00032EEE19A23EE88AA24EE89BA23EE899AA2
:1017E000DDED173A37EE677A71EEA21A63EE872ABB
:1017F00066EEA17A63EEA11A26EE877A24EE888A35
:1018000031EEC77A34EE422A36EE433A30EEC54A1C
:1018100030EE410ADDED190ADDED121A39EE488A83
:1018200032EE001A34EE435A8EED038A81ED037ACC
:1018300020EE816A21EE857A20EE855A21EE811A0A
:101840003AEE0BAA72EEA72A36EE076A35EE411A77
:101850008EED02AAC1ED022A80ED026A80ED031A24
:101860001F9833EE041A03441E989DED1B4A9DED0C
:10187000145A32EE400A83420F9824EE002A25EED5
:10188000013A24EE011A25EE000A32EE032A31EE67
:10189000400A844482ED022A82ED030AFFF4C6AEB8
:1018A000089D0698079E0135099C854206F10806A9
:1018B000FFF444AE0298C00002901F983F2806989B
:1018C0001F903FF63FAD20B0BDEC108B01B0BDE8DE
:1018D000F08F10B578B14FF400710446FFF752F95C
:1018E00050B94FF4806020824BF22050C0F60300C4
:1018F0006061002000E0FF2040B210BD10B568B16B
:1019000040210446FFF73EF948B9802020824CF27E
:101910002050C0F603006061002000E0FF2040B2CC
:1019200010BD10B578B14FF480610446FFF72AF975
:1019300050B94FF4006020824CF22070C0F60300D2
:101940006061002000E0FF2040B210BD10B570B112
:1019500080210446FFF716F950B94FF480702082B9
:101960004EF22070C0F603006061002000E0FF200E
:1019700040B210BD10B568B110210446FFF702F95E
:1019800048B9202020824EF62030C0F60300606166
:10199000002000E0FF2040B210BD10B578B14FF438
:1019A00000610446FFF7EEF850B94FF480502082F2
:1019B0004EF6A030C0F603006061002000E0FF207A
:1019C00040B210BD10B578B14FF480710446FFF7F6
:1019D000D9F850B94FF40070208242F6A030C0F61A
:1019E00004006061002000E0FF2040B210BD10B58F
:1019F00068B120210446FFF7C5F848B9402020828D
:101A000043F2A030C0F604006061002000E0FF2037
:101A100040B210BDF0B581B014460E46054673B114
:101A20002846314622461F4600F060F828462146E7
:101A30003A46012301B0BDE8F040FFF733B828462D
:101A4000314600220123FFF72DF828463146224671
:101A500001B0BDE8F04000F0A3B8B1F5007F0ADAAC
:101A60007F2916DC202929D040293BD141F6EF11EE
:101A7000C0F600010847B1F5006F14DAB1F5007F38
:101A800021D0B1F5806F2DD141F6D301C0F6000110
:101A9000084780291CD0B1F5807F23D141F64D1134
:101AA000C0F600010847B1F5805F16D0B1F5006FB0
:101AB00018D141F62311C0F60001084741F675110F
:101AC000C0F60001084741F6C511C0F600010847FD
:101AD00041F6FD01C0F60001084741F69B11C0F632
:101AE000000108474FF0FF307047000080B591EDCE
:101AF000001A91ED012AD0F814E0008831EE023A84
:101B0000B6EE000A31EE421AB0F1010C23EE003AB3
:101B100021EE001A82ED003A82ED011A08BF80BD65
:101B200001F1080301EBCC010EF108000832043189
:101B300011ED011A91ED002A93ED003A93ED014A5F
:101B400090ED005A90ED016A33EE417A72EE040A8C
:101B500067EE051A60EE862A27EE066A31EE031A52
:101B600034EE422A25EE205A31EE611A32EE062A70
:101B700031EE621A32EE452A21EE001A22EE002AD8
:101B800082ED001A82ED012ABCF1010C03F1080379
:101B900000F1080002F10802A1F10801C8D180BDDE
:101BA00091ED000A91ED011A0388406930EE002A98
:101BB00031EE011AA3F1010C32EE013AB6EE000A41
:101BC00032EE411A23EE003A21EE001A00F108032A
:101BD00001F1080001EBCC0182ED003A82ED011A1F
:101BE0000832043111ED011A90ED003A91ED002A0E
:101BF00090ED014A93ED005A93ED016A31EE437A7C
:101C000072EE040A67EE051A27EE067A31EE031A21
:101C100034EE422A25EE205A20EE866A31EE211A51
:101C200032EE072A31EE061A32EE452A21EE001A6C
:101C300022EE002A82ED001A82ED012ABCF1010C8D
:101C400003F1080300F1080002F10802A1F1080104
:101C5000C8D1704710B50146806B026C12F0500F6E
:101C600005D0026CD20626D500F016FF10BD016C1F
:101C700041F40071016401688A6812F0405F17D175
:101C8000027EAAB9CA6A12F4700F02D08A6852059D
:101C90000ED44A6822F020024A60016C21F480715F
:101CA0000164016CC90403D4016C41F001010164B9
:101CB00000F0F0FE10BD806BC26CBDE8104008461D
:101CC000104710B5806B40210164416C41F0040164
:101CD000416400F0E1FE10BD10B5806B00F0DBFE4A
:101CE00010BD0000464910B54A6822F440324A60EF
:101CF0004A6843681A434A6001684A6822F480725D
:101D00004A6001684A68036942EA03224A6001683E
:101D10004A6822F040724A6001684A6883681A4340
:101D20004A6001688A6822F400628A6001688A68F1
:101D3000C3681A438A60816A6FF07062D142016899
:101D40008A6822F070628A6001688A680CD0836AAF
:101D50001A438A6001688A6822F040528A600168EA
:101D60008A68C36A1A4301E022F040528A6001681F
:101D70008A6822F002028A6001688A68037E42EA69
:101D800043028A6090F82010002901684A680FD049
:101D900042F400624A6001684A6822F460424A6084
:101DA00001684A68174C436A04EB43331A4301E065
:101DB00022F400624A600168CA6A22F47002CA62B0
:101DC0000168CA6A838B104C04EB03531A43CA623E
:101DD00001688A6822F400728A6001688A6890F853
:101DE000303042EA43228A6001688A6822F48062C5
:101DF0008A6001688A68406942EA8020886010BD74
:101E00000023014000E0FFFF0000F0FF0349044A07
:101E100031F8101052F8200002F052BBF4320208E0
:101E20009800002030B51D4A044687B01368002092
:101E300043F0010313601268194D02F0010205928C
:101E4000184B0222E9B1012919D135F81410CDE956
:101E500002024FF48810CDE9001053F824006946BF
:101E600002F014FAAD1C002215F814000F2140B244
:101E700003F03EF815F8140040B203F02CF807B058
:101E800030BD35F81410CDE90010CDE9020253F849
:101E90002400694602F0FAF9F1E700003038024008
:101EA000F432020898000020084910B5064808607E
:101EB000084603F030F908B1012010BD00210348A5
:101EC00000F05EF8002010BD001000A0101D0020E2
:101ED00000B591B04FF480700690EB2000904FF465
:101EE000406007904FF40050039000204FF0407185
:101EF000CDE908010A2105910B900C900D900F90EF
:101F00000EAA6946034803F06FF9002800D00120AB
:101F100011B000BD101D002010B5184C16482060EF
:101F2000204603F0F8F8D0B90021204600F05CF814
:101F300001206060A0601020E060000590FAA0F031
:101F4000B0FA80F0401E20614FF480606061002094
:101F5000A061E0612062204603F0F2F808B10120A0
:101F600010BD064805F0C6FA20B9044805F07CFA11
:101F70000028F5D0042010BD001000A0101D002086
:101F800010B55B2002F096FF4021144802F0B8F82B
:101F9000134C4FF48061204602F0B2F8A1152046A0
:101FA00002F0AEF86115204602F0AAF88021204622
:101FB00002F0A6F84021204602F0A2F80948016884
:101FC00041F002010160016821F002010160054851
:101FD0002030016821F00201016010BD00040240C0
:101FE000001402401838024070B52C4886B0002416
:101FF000016841F002010160006800F002000590F4
:1020000026482038016841F002010160016821F092
:102010000201016021480838016841F002010160B5
:10202000016801F002010591016841F020010160A1
:1020300000680A2500F02000059040200090022052
:102040000190012002900320CDE903056946144860
:1020500002F01CF94FF480600294124E00900924A3
:1020600069463046049402F011F94FF44070009034
:1020700069460495304602F009F9C020009069468F
:102080000494304602F002F900220F215B2002F096
:102090002FFF5B2002F01FFF06B070BD38380240F2
:1020A0000004024000140240094910B507480860C6
:1020B000084603F053FE074C28B900206070014623
:1020C000034800F08BF8607810BD0000400100A0CC
:1020D0001C1E0020BC00002070B51B4819490423B9
:1020E000016000F13401022207248B60C1E9002461
:1020F000C1E903424A618A6100244460202184606E
:10210000C0E90331402141614FF4C071C0E90614B8
:10211000910201624900C0E90914214600F072F8F9
:1021200009490948343103F027FE084D10B1012058
:10213000287000E02C7040F2695000F009F828780F
:1021400070BD0000400100A01C1E0020BC0000204B
:102150002DE9F843204C0025012610270095C4E9FD
:102160000067C4E9026581464FF6FF782146424682
:10217000A1F1500003F080FE012001F033FF0220A6
:10218000C4E90007C4E9026521464246A1F15000B6
:1021900003F072FE0320C4E900070820C4E9020529
:1021A00021464246A1F1500003F066FE4FF40C7048
:1021B0000090C4E902600421C4E9001721464246A8
:1021C000A1F1500003F058FE4946A4F15000BDE8CB
:1021D000F84303F039BE00006C1E002010B5002843
:1021E0000AD0382002F066FE054904480860BDE8C0
:1021F0001040084601F03FB810BD000010640240D6
:10220000BC1D002030B587B005007DD055480024A6
:10221000016841F0010101600068524900F00100CD
:1022200008390590086840F480000860086800F4E8
:1022300080000590086840F004000860086800F01D
:1022400004000590086840F008000860086800F085
:1022500008000590086840F010000860086800F069
:1022600010000590086840F020000860086800F041
:1022700020000590086840F040000860086800F001
:1022800040000590086840F080000860086800F091
:1022900080000590086840F480700860086801219B
:1022A00000F4807005900220CDE9010103900C201C
:1022B0000091049069462C4801F0E8FF4CF203704D
:1022C00000906946294801F0E1FF4FF683700090C5
:1022D0006946274801F0DAFF4FF63F000090694653
:1022E000244801F0D3FF48F2331000906946224899
:1022F00001F0CCFF4FF60C70009069461F4801F0CA
:10230000C5FF40F2FF6000E02AE0009069461C48EB
:1023100001F0BCFF1B498020C1E901408000C8607A
:1023200040000861800048618000C1E90604C000E7
:10233000C1E908040320C1E90A0413480C630860DA
:10234000296308468D6300F096FF0E4801F094F86B
:1023500000220521382002F0CBFD382002F0BBFD21
:1023600007B030BD3838024000080240000C02407F
:10237000001002400014024000180240001C0240FD
:10238000002002405C1D0020106402402DE9FE4F39
:102390000746354E00200090706801693078884704
:1023A0003870C0B300240DF1040902AD06F1080A2B
:1023B00006F1100B52E000BF706805EB4402C846FE
:1023C000436909EB4401307898477078010707D5D5
:1023D00038F8142035F8143028F8143025F8142073
:1023E000810706D538F81420A2F21F32524228F88D
:1023F0001420400706D535F81400A0F2DF10404243
:1024000025F8140038F814005AF824205146904258
:1024100002D9821A01E024E0121A1FFA82F835F874
:1024200014205BF824C05B46624502D9A2EB0C0C79
:1024300001E0ACEB020C1FFA8CFCC444BCF1050FAC
:1024400003D941F8240043F8242007EB44003AF86C
:10245000241041803BF82410C180641C3878A042CD
:10246000AAD80098BDE8FE8FC00000202DE9F041F9
:10247000154D164C8846074629680026207888475F
:10248000696854208847C0B211280BD06968702051
:1024900088477021C0B22170112805D0032630462C
:1024A000BDE8F081542020706560474501D20120CD
:1024B00000E00C206070A968207888476068C168D7
:1024C00020788847EBE7000068000020C00000206B
:1024D000FEE70000354A30B413684FF0000C23F0DB
:1024E00001031360324A1368C3F30B140123A4F5EC
:1024F0004065243D0ED01468C4F30B14A4F5406568
:10250000273D07D01268C2F30B12A2F55064223C9B
:1025100032D01AE0274A1268BAB9274AD2F800C066
:10252000CCF30B0CBCF58A6F19D0D2F800C0CCF3F9
:102530000B0CACF58064833C11D01268C2F30B0223
:10254000A2F5806CBCF1850C09D01C4A936093689D
:10255000002BFCD110601068884223D009E0184A93
:1025600013601368002BFCD1164A10601068884273
:1025700018D030BC00207047134A1268C2F30B0217
:10258000A2F58064863C13BF6046104A136030BCDD
:1025900018BF70471368002BFCD10D4A10601068FB
:1025A0008842E6D130BC012070470000002000E0E6
:1025B00000ED00E0002004E00010005C003002406C
:1025C000084C0258004C0258F08F0046084C024656
:1025D000004C024610B5846B204600F0CFFB012072
:1025E000207110BD10B5846B204600F09DFB0120CA
:1025F000207110BD10B5846B206940F0040020618B
:10260000204600F0BDFB0120207110BD10B5846B89
:10261000206940F004002061204600F087FB012083
:10262000207110BD10B5806B00F0A9FB10BD10B576
:10263000806B00F07AFB10BD014800F04DBE000039
:10264000C01B0020014800F0F1BC00004015002034
:1026500010B5034800F040FE02490120087010BD8B
:10266000601B00204C00002001681823CAB2103AF9
:10267000B2FBF3F2054B6FF30901032A9B5CC365C0
:1026800000D9091D8165084670470000F83202082C
:1026900010B5014600208B698A6A4FF0C07453B1AF
:1026A000B3F5005F15D072B1012A0CD0022A0AD00E
:1026B000032A09D104E01AB1012A06D0022A03D163
:1026C000C96AC90100D5012010BDC96AA142FAD06A
:1026D00010BD002AF7D0012AF2D0022AF3D0032A33
:1026E000F3D010BD30B50468256825F48025256039
:1026F000046863608368402B036803D099600068B6
:10270000C26030BD9A600068C16030BD10B542EA59
:102710008111029C41EA032141EA0441C16610BDD6
:102720001CB5012808D8487800900B7815220021A4
:10273000064801F0F6FB1CBD0A5CCDE9002103460A
:1027400039220021014801F00FFB1CBD801500203B
:10275000014801F09AB90000801500202DE9F047EA
:102760009846164689460446DDF820A001F0BAFED8
:1027700005464FF47A7707E001F0B4FE401BB842FB
:1027800002D90320BDE8F0872068406FC007F3D06E
:1027900046EA891141EA082141EA0A402168C866EF
:1027A0000020EFE7704770474FF4347240F8212063
:1027B00000EB81016FF070428A600021016141618C
:1027C000816108467047F0B5D1E907354C6A0A685F
:1027D000C2B102682B4322F4F8421443234303603E
:1027E000D1E901231A43D1E9033423431A434B6946
:1027F00089691A430A4341686FF30E010A43426034
:102800000020F0BDD1E901263243D1E903673E4300
:1028100032434E69896932430A431A432A430168A5
:1028200022436FF30E010A430260E9E7426943F66F
:10283000FE739A4342EA410141610020704770B53E
:1028400014460546D1E9000210438A686FF01F0361
:10285000C96803EB421242EA4121084329696FF338
:1028600015010843286101F03DFE064609E0601CA1
:1028700007D024B101F036FE801BA04201D903200D
:1028800070BDA8698006F2D4002070BDF0B56FF06D
:102890000F058C8A2E014FEA054ECB682F034FF0AF
:1028A0007F4C0EEB04540AB31A03A2F580528368DE
:1028B00022431D4C23401A438260D1E9002305EBDB
:1028C0000313521E1A438B6806EB03231A430B8A29
:1028D000097E07EB03431A430CEB01610A43C1680D
:1028E00001F070410A43C2600020F0BDD1E9002E22
:1028F00005EB0E15521E2A438D6806EB05252A436B
:102900000A4D05EB03331A430B8A097E07EB034399
:102910001A4322430CEB01610A43816801F07041C4
:102920000A438260E0E70000FF0F0FFF00F0FFFFA7
:1029300078B50024009490F83C20012A19D0012297
:1029400080F83C200A6807230568092A13D9EE6835
:102950000A3A02EB420293409E43EE600B788A688B
:102960000A3B03EB43039A400368DD682A43DA60BD
:1029700010E0022078BD2E6902EB420293409E4394
:102980002E610B788A6803EB43039A4003681D6944
:102990002A431A614A681F23072A13D205686E6BFF
:1029A000521E02EB820293409E436E630A8893B2EA
:1029B0000A79521E02EB820293400268556B2B4348
:1029C000536327E005680D2A12D22E6BD21F02EB4B
:1029D000820293409E432E630B790A88DB1F92B2DA
:1029E00003EB83039A4003681D6B2A431A6311E0CB
:1029F000EE6A0D3A02EB820293409E43EE620B793F
:102A00000A880D3B92B203EB83039A400368DD6AA8
:102A10002A43DA621B4B0568194A9D420AD10D68A8
:102A2000122D07D1556825F400055560556845F409
:102A30008005556005689D421DD1134D0B68AB4262
:102A400001D0112B17D1536823F4800353605368CE
:102A500043F4000353600968A9420CD10B490C4AA6
:102A60000968B1FBF2F101EB8101490000E0491E68
:102A700000910029FBD180F83C40002078BD000087
:102A8000002301400020014012000010E40000205B
:102A900040420F0070477047704770B504004FF018
:102AA000000503D0206C002610B107E0012070BDA6
:102AB000204600F01DF8666484F83C60206CC00677
:102AC00010D4206C20F4885040F00200206420468E
:102AD000FFF708F96664206C20F0020040F0010066
:102AE000206400E0012584F83C60284670BD0000A9
:102AF00070B586B0064614216846FDF78FFD1D4966
:102B00003068884233D11C480025016841F4807147
:102B10000160006800F4807005901748143801685F
:102B200041F0020101600068694600F00200059072
:102B3000022000900320CDE90105104801F0A6FB1A
:102B4000104C0F48C4E900050015A560C4E9035006
:102B5000800060618000C4E9060525622046656248
:102B600000F08AFC08B1FFF71EFEB463A66306B04E
:102B700070BD0000002001404438024000040240C3
:102B800010640240601B0020F8B5044600200E4689
:102B9000009094F83C10012907D0012184F83C10E2
:102BA00021688B68DB0702D011E00220F8BD8B683A
:102BB00043F001038B604049404B0968B1FBF3F1DE
:102BC00001EB410100E0491E00910029FBD1216881
:102BD0008B68DB0503D58B6823F480738B602168D9
:102BE0008B68DB075DD0236C40F20165AB4343F497
:102BF000807323644968490505D5216C21F400518F
:102C000041F480512164216CC90404D5616C21F028
:102C10000601616400E0606484F83C00A16B29480F
:102C2000274DC863A16B28480864A16B2748C86476
:102C300021686FF0220008602068416841F08061DF
:102C400041602068816841F4807181602168134689
:102C500032464C31A06B00F079FC68681C49C00614
:102C6000206806D0884224D1816811F0405F13D0DB
:102C70001FE08842F8D0174A904203D1D1F80423CC
:102C8000D206F1D0144A904213D1D1F8041301F0C6
:102C90001F011029E8D30CE0816841F08041816078
:102CA00007E0206C40F010002064606C40F00100F0
:102CB00060640020F8BD0000E400002040420F00E6
:102CC00000230140551C0008D91C0008C31C000843
:102CD00000200140002101400022014010B5040005
:102CE00002D0607910B106E0012010BD00202071F3
:102CF000204600F005F801206071002010BD0000A2
:102D000008B500680649884208D10648016841F4C0
:102D100080510160006800F48050009008BD000000
:102D2000003002403038024070477047704770B53D
:102D300000B3F9B14379012B1ED00126467102235D
:102D4000037105682C6802F0100340F6FE729A4089
:102D50009443D1E900210A439A4022432A60016842
:102D60000A68C0249C40A2430A6006710021417198
:102D7000084670BD012070BD022070BD70477047CD
:102D8000704770B5040003D02079002510B105E02C
:102D9000012070BD6571204600F008F80220207106
:102DA000256101202071002070BD0000F0B587B0C2
:102DB000064614216846FDF731FC214930688842F7
:102DC0003BD120480025016841F0005101600068B6
:102DD00000F0005005901B481038016841F00101D7
:102DE00001600068032700F0010005901020CDE984
:102DF000000769460295144801F048FA144C13483C
:102E000020604FF0606060604020C4E9020500016E
:102E10002061800060618000A0618011C4E9070525
:102E200004206062C4E90A752046256300F024FB93
:102E300008B1FFF7B8FCB460A66307B0F0BD0000AE
:102E400000740040403802400000024088600240A8
:102E5000C01B00202DE9F0410400069817460D46DE
:102E60001BD0617901291BD00126667102212171D5
:102E7000C5B1E2682949D163E26829491164E26871
:102E80002849D16421680A6842F080520A6040B340
:102E90002268042828D01C3227E00120BDE8F081F8
:102EA0000220FBE7A2682049D163A2681F49116490
:102EB000A2681F49D16421680A6842F480520A60FE
:102EC00020B12268042804D0103203E022680832BE
:102ED00000E00C322068016841F400510160A068F4
:102EE00009E02268143200E018322068016841F0DD
:102EF00000510160E068394600F028FB0021617153
:102F000020B1216941F004012161C7E721680A6805
:102F100005F010039E4032430A60BFE7E525000834
:102F20002F2600080D260008D525000825260008B4
:102F3000F525000870B504001BD02068036801F077
:102F400010024FF480559540AB430360206803683E
:102F5000012505FA02F29343036061B1E06800F0D5
:102F600041F92068016821F00051016025710020BD
:102F700070BD012070BDA06800F034F920680168C0
:102F800021F40051F1E7704770B590F83820012A1C
:102F900024D0012680F83860022280F8392000EB26
:102FA0000112148CD369183243EA04451E4C0A2BD3
:102FB00016D0092B14D0137B45EA0363002901685E
:102FC00013D0CD69A5431D43CD6103681168196114
:102FD00051680A291BD0092919D01DE0022070BDB3
:102FE000D36803F07F432B43E8E74D6AA5431D43B5
:102FF0004D6203681168996151680A2901D0092955
:103000000AD1D168026821F07F41916204E0D16861
:10301000026821F07F41116280F83960002180F858
:103020003810084670BD00000F0003FF2DE9F0477F
:103030000446006846680568F1074FF004084FF041
:1030400000074FF0010914D0E90512D5016821F4F9
:1030500080710160E06B40F00100E0632168C1F81D
:10306000089084F8398084F83870616909B1204685
:103070008847B00615D5A80413D52068016821F447
:1030800000510160216820208860E06B40F0020060
:10309000E06384F8398084F83870616909B12046AA
:1030A0008847300715D5280513D52068016821F415
:1030B00000610160216808208860E06B40F0040036
:1030C000E06384F8398084F83870616909B120467A
:1030D000884770070CD568050AD52068016821F477
:1030E000806101602168C1F80880204600F05AF82C
:1030F000B00713D5A80511D52068016821F4007127
:103100000160216802208860E06BE06384F83990F8
:1031100084F83870216909B120468847F00612D535
:10312000E80410D52068016821F48051016021680D
:1031300010208860E06BE06384F8399084F8387080
:103140002046FFF720FFBDE8F08770B5040004D0EB
:1031500094F83900002510B106E0012070BD84F814
:103160003850204600F020F8022084F8390020680A
:103170000168626821F44031114301602068416BAD
:10318000A26821F00701114341632068016CE268E5
:103190006FF30D0111430164E563012084F83900E8
:1031A000002070BD7047000008B500680B498842D8
:1031B00012D10B48016841F400010160006800224F
:1031C00000F40000009005215A2001F091FEBDE8B6
:1031D00008405A2001F07FBE08BD000000B0024048
:1031E000303802402DE9F0410446876D01F07AF94C
:1031F000064694F835000025022806D08020606538
:1032000084F834500120BDE8F0812068016821F085
:10321000160101602068416921F080014161206C44
:1032200008B9A06C20B12068016821F00801016094
:103230002068016821F0010101600CE001F052F901
:10324000801B052807D920206065032084F83500FD
:1032500084F83450D7E720680068C007EED194F8AE
:103260005C103F208840B860012084F8350084F865
:1032700034500020C7E770B504002BD094F8350017
:10328000022826D02068016821F001010160206831
:103290000025056020684560206885602068C5605D
:1032A000206805612168212048612046FFF7DCF98C
:1032B000E56325646564A564E564256594F85C2090
:1032C0003F2191408160656584F8355084F8345021
:1032D000002070BD012070BD2DE9F84304464FF079
:1032E0000009CDF8009063484FF41651A56D0068B1
:1032F000B0FBF1F72E6894F85C10082000FA01F199
:1033000031420FD021680A6852070BD50A6822F0B3
:1033100004020A6094F85C108840A860606D40F078
:103320000100606594F85C104FF0010808FA01F0A4
:10333000304208D021684969090604D5A860606D4B
:1033400040F00200606594F85C1004208840304230
:1033500008D021680968890704D5A860606D40F02D
:103360000400606594F85C1010208840304218D04A
:1033700021680968090714D5A86020680168490315
:1033800004D50068000308D5A16C07E00168C905F1
:1033900003D4016821F008010160216C09B12046C5
:1033A000884794F85C1020208840304231D0216852
:1033B0000968C9062DD5A86094F83500052820684D
:1033C000016806D0490347D5006800031DD4616C2D
:1033D0001CE021F0160101602068416921F08001A4
:1033E0004161206C08B9A06C20B12068016821F00F
:1033F0000801016094F85C103F208840A86084F8C0
:10340000358084F83490216D1FE0E16B09B12046CE
:103410008847606D00282BD0606DC00714D0052050
:1034200084F835002068016821F0010101600098EE
:10343000401C0090B84203D820680068C007F6D14D
:1034400084F8358084F83490E16C002910D001B004
:103450002046BDE8F04308470168C905D5D4016896
:1034600021F01001016084F8358084F83490CCE7B5
:10347000BDE8F883E40000202DE9F041044601F0A6
:1034800031F806465CB1022084F83500002584F846
:1034900034502068016821F0010101600DE0012035
:1034A000BDE8F08101F01EF8801B052805D9202019
:1034B0006065032084F83500F2E720680068C007E3
:1034C000F0D12268116820480140D4E90103184373
:1034D000D4E903363343184363691843A369184397
:1034E000E3691843236A18430843616A042903D136
:1034F000D4E90B1319430843106020684069666AD9
:1035000020F0070130460E43012704280CD1A06AA1
:103510000643E06A40B12046FFF7BAF820B14020E8
:10352000606584F83570BAE7206846612046FFF789
:103530009BF894F85C203F2191408160656584F898
:1035400035700020ACE700003F8010F02DE9F0411D
:103550000446866D90F83400002501280DD0012026
:1035600084F8340094F835700020012F07D084F8D7
:10357000340002252846BDE8F0810220FBE702273F
:1035800084F8357060652046FFF7ACF894F85C105D
:103590003F208840B0602068016841F0160101605A
:1035A000206C20B12068016841F0080101602068AA
:1035B000016841F001010160DCE730B5027C012ABD
:1035C0007DD0012202740268536B43F00103536300
:1035D0000268D2F8003423F00103C2F80034026814
:1035E000D2F8003443F00103C2F800340268D36813
:1035F00023F00303D3600268D3680C682343D360CD
:103600000268536923F00703536103685A69CC6960
:103610002243D1E905542C4322435A6102681369BD
:1036200023F00F031361026813694C68234313618D
:103630000268D2F8003423F00E03C2F800340268A6
:10364000D2F800344C6843EA4403C2F800340268FC
:10365000536E6FF30F0353660268536E8C682343F7
:1036600053660268D2F8003423F0F003C2F8003445
:10367000D1E903231A43D1E9084323431A430368DA
:10368000D3F800442243C3F800240268936E23F069
:10369000010393660268936E896A0B43936601681F
:1036A000D1F8082442F00102C1F808240168D1F8D9
:1036B000082442F00202C1F80824002100E002E0E0
:1036C0000174084630BD022030BD000010B5027CF8
:1036D000012A2FD0012202740268936E164C2340F7
:1036E0009366D1E900231A43D1E9023423431A43F4
:1036F0000B691A434B691A438B691A43CB691A4306
:103700000B6A1A434B6A1A438B6A1A43CB6A1A43F1
:1037100003689C6E22439A660268936E23F002034C
:1037200093660268936E096B0B43936600210174E4
:10373000084610BD022010BDFF80F0FE30B5027CAF
:10374000012A5DD00122027403680022C3F8C4205C
:103750000368C3F8C8208161CB0706D0036853F81B
:10376000C44F4FF6FF752C431C608B0705D50368CB
:1037700053F8C44F44F4F8141C604B0705D5036894
:1037800053F8C84F44F001041C600B0705D50368CB
:1037900053F8C84F44F002041C60CB0605D50368FB
:1037A00053F8C84F44F00C041C608B0605D5036821
:1037B00053F8C84F44F010041C604B0605D503684D
:1037C00053F8C84F44F020041C600B0605D503686D
:1037D00053F8C84F44F040041C60CB0505D503687E
:1037E00053F8C84F44F080041C60890505D5016872
:1037F00051F8C83F43F4F8530B600274002030BD09
:10380000022030BD027C012A0ED00122027402681F
:10381000D36A23F01F03D3620268D36A0B43D362D7
:1038200000210174084670470220704710B5027CE1
:10383000012A6AD0012202740268936823F47F434C
:103840009360026893680C6843EA042393600268FB
:10385000936F9BB293670268936F8C8843EA04432B
:1038600093670268936F6FF30F0393670268936F18
:103870008C68234393670268D36F6FF30F03D3679A
:103880000268D36FCC682343D367026852F8803F45
:103890006FF30F031360026852F8803F0C692343F3
:1038A0001360026852F8843F6FF30F0313600268DD
:1038B00052F8843F4C6923431360026852F8843FF6
:1038C00023F080731360026852F8843F8C692343AD
:1038D0001360026852F8883F6FF30F0313600268A9
:1038E00052F8883FCC6923431360026852F88C3F3A
:1038F0006FF30F031360026852F88C3F096A0B43A1
:10390000136000210174084610BD022010BD30B5BF
:10391000027C012A36D001220274D1E900239342AD
:1039200000D91A46036853F8984F04F0FC241C6031
:10393000036853F8984F42EA024214431C6002683D
:1039400052F89C3F03F400431360036853F89C2F24
:103950000C690D7A22438C89240444EA05642243CD
:103960001A60026852F8A43F23F47F431360026890
:1039700052F8A43F496943EA012111600021017412
:10398000084630BD022030BD2DE9F14FDFF8D8C028
:10399000364B364FDCF804006146401C334A9C3BF2
:1039A000DFF8C8B0CCF804001D1D314E243FDFF80D
:1039B000C4908968304C4FF4F17E02F1040AABF1F7
:1039C000880B4FF00108042826DAD4F804C02CF044
:1039D000080CC4F804C000EBC00C0CEB001C01EB9D
:1039E0000C111160C821032800D1E821891C4EEA7E
:1039F00001411960214929603E60CAF80090CBF866
:103A0000008002F061FF606840F00800606000988C
:103A1000BDE8F84F00F046BA606820F0080060602A
:103A200011601648401E1860154828603E60CAF8AC
:103A30000090CBF80080002002F046FF606840F064
:103A40000800606000200EF007FE074800210170AA
:103A50000C480468002C05D02068016A204688477D
:103A600084F87C80BDE8F88F04000020AC68014039
:103A70000300CA009301800600700140E301CA0000
:103A8000E301CB0008030020704710B5044600682E
:103A9000D0F80C14C90709D0D0F80814C90705D00C
:103AA0000121C0F81014204600F06EFA2068D0F80A
:103AB0000C14890709D5D0F80814890705D5022107
:103AC000C0F810142046FFF75FFFA06900284DD012
:103AD000206850F8BC2F816811404268C0681040CF
:103AE0000A04120C03D0626942F00102626111F40F
:103AF000F81F03D0616941F002016161C10703D081
:103B0000616941F004016161810703D5616941F098
:103B10000801616110F00C0F03D0616941F01001E0
:103B20006161C10603D5616941F0200161618106CF
:103B300003D5616941F040016161410603D56169C6
:103B400041F080016161010603D5616941F4807132
:103B5000616110F4F85F03D0606940F40070606147
:103B60006069002802D02046FFF78EFF10BD0000DC
:103B70002DE9F8430D46040002D0607C18B105E041
:103B80000120BDE8F883204600F050F9032060745E
:103B900020684FF00009D0F8301441F08071C0F86F
:103BA00030142068D0F8300400F08070009000F0ED
:103BB00099FC06464FF47A7705E000BF00F092FCCE
:103BC000801BB84233D82068D0F80C04C004F5D567
:103BD0002068D0F83014624A1140C0F830142068D0
:103BE000D0F830142A682B8941EA82016A68D2022F
:103BF00042EA03421143C0F830142068D0F8301470
:103C000041F00101C0F830142068D0F8300400F011
:103C100001000090012000F0E5F900F063FC064689
:103C2000B84606E000F05EFC801B404501D9032049
:103C3000A7E72068D0F80C04C005F3D520684E46ED
:103C4000416841F0010141602068416801F00101D3
:103C50000091816821F0FF01816020688168A2687D
:103C600011438160206850F8A01F41F002010160FB
:103C7000206850F8A01F41F004010160206850F84E
:103C8000A41F21F003010160206850F8A41FE2681E
:103C90001143016000F026FC07462068D0F8A4001C
:103CA000800715D0C1464FF094082068D0F8B010B6
:103CB00038EA010014D000F015FCC01B4845F4D9C7
:103CC0002674B4E700F00EFCC01B404502D9F7E7AC
:103CD0004FF014092068D0F8B01039EA0100F1D192
:103CE000686800B901201F494FF4FA524843297A05
:103CF00001F00301884029685143B0FBF1F02168CD
:103D0000D1F8182422F03F02C1F818242168D1F814
:103D100018240243C1F818242068C0F8C460206841
:103D2000C0F8C860A6612068416821F001014160C7
:103D30002068416801F001010091D0F8941021F051
:103D40000301C0F89410206850F8941F6268114372
:103D500041F001010160666101206074002010E7FC
:103D60000386FCFF00093D002DE9FF4F81B00446AA
:103D7000DDE90EA6007C1D469346012809D00120EE
:103D8000207400F0AFFB07464FF000084FF47A793B
:103D90000DE0022005B0BDE8F08F00BF00F0A2FBEF
:103DA000C01B484503D984F810800320F2E720683F
:103DB000406FC007F2D05046032D02D22B4600219F
:103DC00008E0032300210827725C07EBC107BA4013
:103DD0001043491C9942F6D321680867EA1A13E098
:103DE000042A01D2134600E004230021084606E01D
:103DF000375C4FEAC00C07FA0CF73943401C984275
:103E0000F6D320680167D21A1E44002AE8D16D1C3F
:103E1000C5F307200090EBB25A4620680299FEF7DE
:103E200075FC84F810800020B4E7000010B586B05F
:103E3000044614216846FCF7F1FB174920688842C4
:103E400027D116480021026842F000620260006833
:103E500000F00060059011481438026842F40072C6
:103E60000260006800F400700590042000900220B9
:103E7000CDE901010D20CDE903106946084800F0A5
:103E800005FA002205215C2001F032F85C2001F0E7
:103E900022F806B010BD0000006C0140443802401A
:103EA00000240240017C01290CD001210174016829
:103EB000D1F8042442F00402C1F804240021017462
:103EC0000846704702207047027C012A0ED001226A
:103ED00002740268136B23F0030313630268136B0D
:103EE0000B4313630021017408467047022070479A
:103EF000027C012A13D0012202740268D2F81C3419
:103F000023F0C063C2F81C340268D2F81C3443EAC0
:103F10004161C2F81C140021017408467047022058
:103F2000704738B504460498257C012D08D001253A
:103F3000257400902046FEF711FC0021217438BD45
:103F4000022038BD08B5017C01291BD00121017474
:103F5000016800224B6843F001034B6001684B6825
:103F600003F001030093D1F8043443F00803C1F8CF
:103F700004340168D1F8041401F0080100910274BE
:103F8000002008BD022008BD70B5064600200EF0D6
:103F90001DFB124C0025206810F86A1F491C017097
:103FA000857407F009FF20680D4C617880F84A108D
:103FB000617809B1217821B1BDE8704000200EF090
:103FC0004BBB08B10DF01CF92846656002F07CFC83
:103FD0003046FFF767FF0120207070BD0803002006
:103FE0000400002070B5044600F07CFA0546601C11
:103FF00002D004480078044400F074FA401BA04248
:10400000FAD370BDD80000202DE9F04186B014210C
:104010006846FCF703FB3148016800295BD14FF08B
:104020000108C0F800802E480024016841F0010119
:1040300001600068022500F0010005904FF68370D2
:10404000CDE9000502AA03260C2782E8D0006946C4
:10405000244800F01BF948F23310CDE9000502AA0C
:10406000694682E8D000204800F010F94CF2037055
:10407000CDE9000502AA694682E8D0001B4800F09D
:1040800005F940F2FF60CDE9000502AA694682E821
:10409000D000174800F0FAF84FF63F00CDE90005D0
:1040A00002AA694682E8D000124800F0EFF84FF605
:1040B0000C70CDE9000502AA694682E8D0000E48DE
:1040C00000F0E4F802AA694682E8D000CDE9008554
:1040D0000A4800F0DBF806B0BDE8F081600000207F
:1040E000383802400010024000180240000C024024
:1040F0000020024000140240001C02400008024060
:104100002DE9F04F0022DFF854B101264FF00F09DE
:1041100006FA02F401EA0403A3427DD122F0030768
:104120005F44D7F808C895074FEA157809FA08FAE6
:104130000AEA0C05DFF828C1604502D14FF0000CF7
:1041400040E0DFF820C1604502D14FF0010C39E0BA
:10415000DFF814C1604502D14FF0020C32E0DFF805
:104160000CC1604502D14FF0030C2BE0DFF800C119
:10417000604502D14FF0040C24E0DFF8F8C0604540
:1041800002D14FF0050C1DE0DFF8ECC0604502D114
:104190004FF0060C16E0DFF8E4C0604502D14FF0A6
:1041A000070C0FE0DFF8D8C0604502D14FF0080CD3
:1041B00008E0DFF8D0C0604502D14FF0090C01E003
:1041C0004FF00A0C0CFA08FCAC4522D12E4DD5F864
:1041D00000C02CEA030CC5F800C005F1040CDCF8A3
:1041E00000509D43CCF80050274D0C35D5F800C049
:1041F0002CEA030CC5F800C02D1FD5F800C02CEA2E
:10420000030CC5F800C0D7F8085825EA0A05C7F816
:1042100008580568570000E01AE00323BB409D439F
:104220000560D50800EB8505D5F820C057074FEA93
:10423000D76809FA08F72CEA070CC5F820C0C5684A
:104240009D43C5604568A543456084689C43846080
:10425000521C102AFFF45CAFBDE8F08F0030014023
:10426000000002400004024000080240000C02402E
:10427000001002400014024000180240001C0240DE
:104280000020024000240240003C01402DE9F84F8C
:10429000DFF8F8A10022012403254FF00F090AF1ED
:1042A000040BAAF1040E00BF0B6804FA02F63340B7
:1042B000B34270D10F7907F00307012F01D0022F0D
:1042C00016D187684FEA420805FA08FC27EA0C076E
:1042D000D1F80CC00CFA08FC4CEA070CC0F808C076
:1042E0004768B7430E79C6F3001696403E434660D2
:1042F0000E79F643B6070AD0C7684FEA420C05FAB2
:104300000CF6B7438E6806FA0CF63E43C6600E798B
:1043100006F00306022E10D1D60800EB8608D8F866
:10432000206057074FEAD76C09FA0CF7BE430F69B4
:1043300007FA0CF73743C8F8207006684FEA420CBA
:1043400005FA0CF7BE430F7907F0030707FA0CF7DD
:10435000374307604E6816F4403F1CD04C4E376818
:1043600047F480473760366822F0030706F480463A
:104370000096484E07EB060CDCF8086897073F0FDD
:1043800009FA07F826EA0806DFF80C81404503D150
:104390004FF0000841E072E0DFF80081404502D1B3
:1043A0004FF0010839E0DFF8F880404502D14FF0C6
:1043B000020832E0DFF8EC80404502D14FF00308FC
:1043C0002BE0DFF8E480404502D14FF0040824E000
:1043D000DFF8D880404502D14FF005081DE0DFF836
:1043E000D080404502D14FF0060816E0DFF8C480C7
:1043F000404502D14FF007080FE0DFF8BC80404590
:1044000002D14FF0080808E0DFF8B080404502D143
:104410004FF0090801E04FF00A0808FA07F848EAE7
:104420000608CCF80888DAF800605746D1F804C0CE
:104430009E435FEACC2C00D51E433E60DBF8006053
:104440005F46D1F804C09E435FEA8C2C00D51E4322
:104450003E60DEF800607746D1F804C09E435FEA14
:104460008C3C00D51E433E60084F083F3E68D1F8A3
:1044700004C09E435FEACC3C00D51E433E60521C04
:10448000102AFFF411AFBDE8F88F0000083C01408E
:104490004438024000300140000002400004024065
:1044A00000080240000C02400010024000140240CC
:1044B00000180240001C024000200240002402407C
:1044C0000069084000D001207047426921EA0203D8
:1044D0000A4043EA0241816170470AB18161704735
:1044E0000904FBE70148806870470000D8000020FD
:1044F00010B5040013D0242084F83D002068016822
:1045000021F001010160204600F06CFA00202064D7
:1045100084F83D0044F8300FA073207310BD0120D3
:1045200010BD90F83D00704770B5040025D094F898
:104530003D00002520B984F83C50204600F06EFA7A
:10454000242084F83D002068016821F00101016009
:104550002068016841F4004101602068016821F48D
:104560000041016001F0EAF94D4A6168914201D8C9
:104570004C4900E04C49884201D2012070BD4B49B2
:104580002368B0FBF1F15E6826F03F060E435E60E3
:104590006368934206D94FF4967359434FF47A7384
:1045A000B1FBF3F12368491C1E6A26F03F06314334
:1045B00019626168914210D84900401EB0FBF1F2C7
:1045C000521CC2F30B02042A01D2042022E0B0FBE9
:1045D000F1F0401CC0F30B001CE0A268F2B301EB49
:1045E000C10303EB0116431EB3FBF6F35B1C43F45C
:1045F00080431B0549D092B301EBC10202EB0111CC
:10460000401EB0FBF1F0401CC0F30B0040F48040B2
:1046100040F400402168CA694CF6FF739A43104386
:10462000C861D4E9071001432068026822F0C00283
:1046300011430160D4E9030101432068826848F214
:10464000FF339A4311438160D4E90501084321688F
:10465000CA6822F0FF021043C86001E00EE016E0D5
:104660002068016841F0010101602564202084F880
:104670003D00256384F83E50002070BD01EB4106EB
:10468000431EB3FBF6F35B1CB3E70120C2E701EB6B
:104690004101401EB0FBF1F0401CC0F30B00B7E736
:1046A000A086010080841E0000093D0040420F00EA
:1046B0002DE9FF4F83B09A46DDE911879346044602
:1046C000DDF84090FFF70EFF054694F83D002028E6
:1046D00070D11923012274492046009501F0C2FFD0
:1046E0000028F5D194F83C00012863D0012084F81B
:1046F0003C0020680168C90703D1016841F001014D
:1047000001602068016821F400610160222084F8C2
:104710003D00402084F83E0000262664C4F8249022
:10472000A4F82A80608D20856048E062CDE900759C
:1047300053465A462046049901F096FE002879D146
:10474000208DD0B1012821D00228206824D04169D1
:1047500080690090208D032866D801282BD0544909
:1047600002283B464FF00002009557D0884620466D
:1047700001F078FF00285DD13AE020684169816945
:104780000091016841F4007101607DE020680168DA
:1047900021F480610160F0E7016821F4806101602B
:1047A0002068016841F40061016020684169806906
:1047B000009069E075E02A463946204601F0F8FF8E
:1047C00088BB54E02068016841F4007101602068F2
:1047D0000069616A0870606A401C6062218D491E30
:1047E0002185618D491E618521680969017042E05A
:1047F0002068016821F48061016020680069616AB5
:104800000870606A401C6062208D401E2085608DAB
:10481000401E60853B46002241460095204601F03F
:1048200021FF00B9CEE705E02A463946204601F0CF
:10483000BFFF18B1012007B0BDE8F08F2068006904
:10484000616A0870606A401C6062208D401E81B2FF
:104850002185608D401E608520684269D2435207E1
:1048600012D4032903D1016821F48061016020681A
:104870000069616A0870606A401C6062208D401E99
:104880002085608D401E6085208D00287FF462AFFA
:10489000202084F83D0084F83E6084F83C600020CD
:1048A000C9E70220C7E70000020010000000FFFF78
:1048B000040001002DE9FF4F83B09A46DDE911970E
:1048C00093460446DDF84080FFF70CFE054694F859
:1048D0003D0020287FD11923012240492046009520
:1048E00001F0C0FE002876D194F83C00012872D077
:1048F000012084F83C0020680168C90703D10168E1
:1049000041F0010101602068016821F4006101604B
:10491000212084F83D00402084F83E0000262664D3
:10492000C4F82480A4F82A90608D20852C48E06289
:10493000CDE9007553465A462046049901F012FE0F
:1049400070B930E02A463946204601F069FF58B177
:10495000206C042804D12068016841F400710160D2
:10496000012007B0BDE8F08F606A21680078086117
:10497000606A401C6062218D491E89B22185628D6A
:10498000521E628522685369DB435B070BD469B111
:1049900000781061606A401C6062208D401E208596
:1049A000608D401E6085208D0028CBD12A46394677
:1049B000204601F02BFE0028CAD154F83D0B0168B7
:1049C00041F400710160202004F81E09E677667743
:1049D0000020C6E7FFE70220C3E700000200100046
:1049E0000000FFFF10B50068094988420FD109484F
:1049F000016821F400110160074C81152046FFF782
:104A00007FFB61152046BDE81040FFF779BB10BD64
:104A100000540040403802400004024010B586B007
:104A2000044614216846FBF7F9FD1A4920688842BC
:104A30002ED11948016841F0020101600068694601
:104A400000F0020005904FF4407000901220019099
:104A50000120029003200390042004900F48FFF7E8
:104A600015FC0D481030016841F400110160006828
:104A700000F40010059008481038016841F4001156
:104A80000160016821F4001101606420FFF7AAFAB7
:104A900006B010BD0054004030380240000402400F
:104AA000024881680278114481607047D800002074
:104AB0000B4810B5016841F400710160016841F4D0
:104AC00080610160016841F480710160032000F0A1
:104AD0002FFA002000F006F800F0D0F9002010BDF9
:104AE000003C024030B505461C4887B000240168F0
:104AF00041F400310160006806A900F40030009024
:104B000001A800F0FBFE00F029FF15494000B0FBB2
:104B1000F1F11548134A491E026040F2E732C0E93C
:104B20000324C0E90114846101F00EFA040012D1DB
:104B30000D4801F087FA04000DD1192000F0CBF9DF
:104B4000102D07D200222946192000F0D1F907487C
:104B5000056000E0012407B0204630BD4438024023
:104B600040420F0000440140201C0020DC000020D7
:104B70002DE9F041044690F8A00016460F460128A2
:104B80001DD0012584F8A050022084F8A10006EB76
:104B9000860000EBC60004EB800034223830FBF7BF
:104BA00003FD32463946204601F0A6FE20684562E4
:104BB00084F8A150002084F8A000BDE8F081022014
:104BC000FBE770472DE9F04104460068856B466BB2
:104BD00069074FF004084FF0000715D5710713D58A
:104BE000416B21F0040141632168C1F83C80D4F895
:104BF000A41041F00101C4F8A41084F8A18084F845
:104C0000A0702046FFF7DDFFA80716D5B00714D522
:104C10002068416B21F00201416321680220C863D2
:104C2000D4F8A40040F00200C4F8A40084F8A180E5
:104C300084F8A0702046FFF7C4FF05EA0600C0070D
:104C40004FF001080ED02068416B21F00101416353
:104C50002168C1F83C8084F8A18084F8A0702046C7
:104C600000F090F8280710D530070ED52068416B6A
:104C700021F00801416321680820C86384F8A180FD
:104C800084F8A070204600F0AFF8BDE8F081000085
:104C900070B5040004D094F8A100002510B106E01E
:104CA000012070BD84F8A050204600F06DF802206D
:104CB00084F8A1002068816921F070418161D4E904
:104CC00001010843D4E903121143084321688A69AA
:104CD0001043886121688A68294802408A60A18A55
:104CE0000A0421688B68A669334313438B602168EB
:104CF000CA680240CA60A18B0B042168CA68266A90
:104D000032431A43CA6021680A6902400A61A18CD1
:104D100022680B041169A66A3143194311612168A5
:104D20004A6902404A61A08D010420684269236BF0
:104D30001A430A43426194F835002168020294F84C
:104D40003600CB6A03F07F43CB622168CB6A94F8CC
:104D5000346042EA004033430343CB622068416B36
:104D600041F0060141632068816941F001018161E0
:104D7000C4F8A450012084F8A100002070BD0000F8
:104D800000F800F07047000010B590B004463C21D8
:104D90006846FBF743FC1249206888421ED1082070
:104DA0000090322004900220079000200A9068466C
:104DB00000F096FB08B1FDF7F6FC0A48016841F0E7
:104DC000806101600068002200F080600F90052182
:104DD000582000F08DF8582000F07DF810B010BD7C
:104DE00000680140443802407047000070B590F8F8
:104DF000A030012B36D0012480F8A040022380F897
:104E0000A13002EB820303EBC20300EB83039B6C34
:104E100053B3012B2AD0042B2AD0022B28D0032BEA
:104E200026D0072B24D0012359430B04B021056859
:104E300001EBC2116A580F4E32406A500E4A156893
:104E400045F00105156005686E581E436E501168E7
:104E500041F00101116080F8A140002180F8A0100C
:104E6000084670BD022070BD0423DDE70323DBE7A5
:104E70000223D9E7FFFF00E0246801400C4882B01C
:104E8000016841F480410160006800F480400090B6
:104E90000748001F016841F080510160006800224E
:104EA00000F0805000900F21901E02B000F020B85A
:104EB0004438024000280DDB00F01F020121914020
:104EC0004009800000F1E020C0F88011BFF34F8F4F
:104ED000BFF36F8F7047002809DB00F01F0201212C
:104EE00091404009800000F1E020C0F800117047B7
:104EF000F0B40E4B1B680C46C3F30223C3F1070545
:104F0000042D00D90425191D072901D2002300E032
:104F1000DB1E012606FA05F1491E214099409E40FC
:104F2000761E16403143F0BC1AF049BC0CED00E08F
:104F3000064900F0070208684FF6FF03184040EAF0
:104F40000220034A10430860704700000CED00E0A7
:104F50000000FA05F8B504460025FFF7C3FA064637
:104F600094F8410080073BD5002084F84000206879
:104F7000016849070CD5016821F004010160E06B6C
:104F8000FEF730F9050003D0606C40F00400606467
:104F9000206881684FF0010789061FD5016841F03C
:104FA00002010160A06C00903346012202212046DC
:104FB00002F0C9FA050013D121680220C860A06C74
:104FC0000090334600222021204602F0BCFA050062
:104FD00006D12068416921F04061416184F8417047
:104FE0002846F8BD2DE9F84F1E4615468A46044668
:104FF000FFF778FA814694F8400001280ED0012787
:1050000084F8407094F841004FF00008012807D060
:105010005FF0020084F84080BDE8F88F0220FBE7D3
:10502000C4F84480422084F841004B4600222021ED
:105030002046009602F087FA0028EBD12168286804
:1050400088622168686848622168A868C862206828
:105050002969026822F4400242F48002114301608F
:10506000E968CAF828104FF000625146204602F065
:1050700047F94B46012208212046009602F063FAC8
:105080000028C7D122680821D16084F84170C1E7A7
:105090002DE9F84F17468B460446FFF723FA824660
:1050A00094F8400001280ED0012684F8406094F85E
:1050B00041004FF00008012807D0022584F8408005
:1050C0002846BDE8F88F0220FBE7C4F844804FF083
:1050D000020984F84190534600222021204600977F
:1050E00002F031FA0500E9D100225946204602F0CB
:1050F00007F9DBF8240058B9534601220221204663
:10510000009702F020FA0500D8D12168C1F80C9070
:1051100084F84160D2E710B504000ED02068016821
:1051200021F001010160204600F0A4F80020606435
:1051300084F8410084F8400010BD012010BD00003B
:10514000F8B50446FFF7CEF9064624B194F84100BD
:10515000002510B109E00120F8BD84F84050204638
:1051600000F0A6F841F28830A06420680168A268C7
:105170006FF0FF0321F4F85103EB022211430160A9
:10518000A06C0090334600222021204602F0DBF97B
:1051900010BBE269E16823791143226A42EA0362A3
:1051A0001143226813680E4E334019431160D4E94D
:1051B00005121143226853680A4E3340268A43EA97
:1051C00006431943516021680A6842F001020A60EF
:1051D0006564012184F8411084F84050F8BD000056
:1051E0002FFFFF00FEF8E0FF2DE9F8431646884642
:1051F0000446FFF777F9034694F8400001280ED0E3
:10520000012084F8400094F841000027012808D0CC
:105210005FF0020584F840702846BDE8F88302205C
:10522000FBE76764822084F84100A06C00900022B4
:105230002021204602F087F90500EBD120680168A3
:10524000726821F0080111430160706808280AD1D2
:1052500021683068086321681020C86020680168F0
:1052600041F4801101604FF040624146204602F057
:1052700047F8CFE710B50068094988420FD10948BF
:10528000016821F00201016040210748FEF738FF64
:10529000BDE810404FF4F8610448FEF731BF10BD7F
:1052A000001000A038380240000402400014024000
:1052B0002DE9F04186B0044614216846FBF7AEF9AB
:1052C00023492068884240D122480024016841F0E7
:1052D00002010160006800F0020005901D480838D6
:1052E000016841F002010160016801F002010591CD
:1052F000016841F0200101600068022500F02000F3
:1053000005904020CDE9000502AA03260A2782E87D
:10531000D00069461048FEF7B9FF4FF49860CDE918
:10532000000502940920CDE90360DFF8308069466A
:105330004046FEF7ABFF3002CDE9000502AA694600
:1053400082E8D0004046FEF7A1FF06B0BDE8F0813C
:10535000001000A03838024000040240001402404F
:105360002DE9F84F15460F460446FFF7BBF8824675
:105370002068816994F8402000F12009012A0DD0AD
:10538000012684F8406094F841204FF00008012A7B
:1053900006D0022084F84080BDE8F88F0220FBE7A9
:1053A000C4F84480BFB3222284F841200269521C11
:1053B000A2630269521C62632763426922F0406261
:1053C00042F080624261206881610EE00621204641
:1053D00002F0B9F8E0B999F80000216B0870206B71
:1053E000401C2063A06B401EA063A06B53464FF08F
:1053F000010200950028E9D14FF00201204602F099
:10540000A2F828B921680220C8602046FFF7A2FD53
:1054100084F84160BEE7FFE7606C40F0080060641C
:105420000120B7E72DE9F84F15460F460446FFF770
:1054300059F88246206894F8401000F120090129AB
:105440000ED0012684F8406094F841104FF0000817
:10545000012907D05FF0020084F84080BDE8F88F92
:105460000220FBE7C4F844809FB3122184F8411066
:105470000169491CE1620169491CA16267624169D5
:1054800021F0406141610EE00421204602F05BF80A
:10549000E0B9606A017889F80010606A401C6062B7
:1054A000E06A401EE062E06A53464FF00102009558
:1054B0000028E9D14FF00201204602F044F828B953
:1054C00021680220C8602046FFF744FD84F841604F
:1054D000C2E7FFE7606C40F0080060640120BBE7B2
:1054E0002DE9F84F04460078AD4D000605D5286833
:1054F000616B20F00060084328602088C00505D556
:105500002868A16B20F08050084328602068DFF8ED
:1055100094A2A54FC1074FF001084FF0000603D138
:10552000810701D4400648D5CAF86860FEF7DAFF63
:10553000814605E0FEF7D6FFA0EB090002287DD8E2
:1055400038680001F6D42078C107984805D0616812
:10555000227A890141EA027101602178890711D517
:1055600001686268237B9201C1F3027142EA03621F
:1055700042EA017101602968226A21F01F01521E6E
:10558000114329602178490608D56168227B890189
:1055900041EA0261227A41EA02710160CAF8688038
:1055A000FEF7A0FF814605E0FEF79CFFA0EB090097
:1055B0000228C4D838680001F6D520684FF0006B87
:1055C000410706D4010704D4000676D5606B584520
:1055D0007DD1CAF87060FEF785FF814606E000BF06
:1055E000FEF780FFA0EB0900022827D83868C043E7
:1055F0008000F5D520786F4942076D4821D50268B3
:105600000368C2F30142521C22F00042D4F810C0D9
:1056100001EB024242EA8C1294F818C0C3F3027301
:1056200042EA0C6242EA037202602A68636A6FF01F
:10563000FF0C22F4F8520CEB032300E087E01A433E
:105640002A60227812071AD50268C2F30142521C5E
:10565000530002685B08D4F810C001EB0343C2F3A7
:10566000036243EA8C1343EA0262237F42EA037235
:1056700002602A68A36A22F440321A432A60227820
:10568000120614D5626B5A4511D102680368C2F341
:1056900003626569C3F302736D0801EB0541256977
:1056A00041EA851141EA026141EA03710160CAF8E9
:1056B0007080FEF717FF054605E008E0FEF712FFD1
:1056C000401B022843D83868C0438000F6D42078B5
:1056D000800653D534484030016841F08051016064
:1056E0000068354D00F080500090286840F48070CC
:1056F0002860FEF7F7FE074605E000BFFEF7F2FE62
:10570000C01B022823D82868C005F7D5274D143DB3
:10571000286810F4407020D0A18D01F440718142BE
:105720001BD02868254920F44070C1F800800E6025
:1057300028602868C00710D0FEF7D4FE064641F264
:10574000883707E0FEF7CEFE801BB84202D903205F
:10575000BDE8F88F28688007F4D5E16A1248C1F3E4
:1057600001220830032A13D0016821F4F8110160E6
:105770002868A18DC1F30B01084328602078C0067A
:1057800004D50F4994F83000C1F8E0010020DFE7AC
:1057900002680C4B22F4F81219400A430260E7E752
:1057A0008C380240000047420038024084380240F2
:1057B000883802400000FFFF00700040400E474262
:1057C00000104742FFFCFF0F2DE9F0470E46050091
:1057D00065D0DFF81481D8F80000F7B200F00F00B0
:1057E000B04207D288F80070D8F8000000F00F002F
:1057F000B04254D128683D4C810712D5400703D5EB
:10580000206840F4E05020602878000703D5206825
:1058100040F4604020602068A96820F0F000084350
:1058200020602878C0072DD03049686808390128E1
:1058300012D0022813D0032811D009688907002943
:105840002DDA216821F0030101432160FEF74AFEB1
:10585000814641F2883A0EE009688903EFE709685A
:105860008901ECE7FEF73EFEA0EB0901514502D9A4
:105870000320BDE8F0872068696800F00C00B0EBF9
:10588000810FEFD1D8F80010404601F00F01B1426E
:1058900007D90770006800F00F00B04201D0012066
:1058A000E7E72878400705D52068E96820F4E0504C
:1058B000084320602878000706D52068296920F46D
:1058C000604040EAC100206000F058F82168084AB2
:1058D000C1F30311515CC8400649086006480068DE
:1058E000FFF700F90020C4E7003C024008380240FE
:1058F00000330208E4000020DC0000200F220260D8
:105900000C4A136803F003034360136803F0F003C9
:105910008360136803F4E053C36012684FF4E053EC
:1059200003EAD20202610448006800F00F00086038
:105930007047000008380240003C02400448054916
:1059400000680968044AC1F38221515CC84070476D
:10595000E4000020083802401033020804480549DA
:1059600000680968044AC1F34231515CC84070477D
:10597000E40000200838024010330208154810B532
:10598000006810F00C02144813D04110042A0FD004
:10599000082A0ED10F4C241F2268236802F03F0210
:1059A0005B0207D52068C0F38810A0FB010106E068
:1059B000084610BD2168C1F38811A1FB0001002336
:1059C000FAF7F0FC2168C1F30141491C4900B0FB22
:1059D000F1F010BD083802400024F4002DE9F84F22
:1059E00004006ED02078DFF86093C007A9F10405A9
:1059F0004AD009F104000168C1F38101012908D0EE
:105A00000068C0F3810002280AD1D9F800004002E2
:105A100006D52868800337D560680028E1D033E0D8
:105A20006068B0F5803F10D0B0F5A02F286810D086
:105A300020F480302860286820F480202860606886
:105A4000A8B1FEF74FFD06460DE0286840F480300F
:105A5000F4E740F480202860F7E700BFFEF742FD3E
:105A6000801B642873D828688003F7D50CE0FEF704
:105A700039FD064605E000BFFEF734FD801B6428B3
:105A8000F0D828688003F7D42078DFF8C082800738
:105A90004FF0000A3ED5AC48001D016811F00C0F14
:105AA00008D00068C0F3810002280BD1D9F80000AB
:105AB000400207D42868800716D5E068012800D185
:105AC00012E03CE1E068B8B10120C8F80000FEF740
:105AD00009FD064605E000BFFEF704FD801B022815
